{
  "abi": [
    {
      "inputs": [],
      "stateMutability": "nonpayable",
      "type": "constructor"
    },
    {
      "anonymous": false,
      "inputs": [
        {
          "indexed": true,
          "internalType": "address",
          "name": "owner",
          "type": "address"
        },
        {
          "indexed": true,
          "internalType": "address",
          "name": "approved",
          "type": "address"
        },
        {
          "indexed": true,
          "internalType": "uint256",
          "name": "tokenId",
          "type": "uint256"
        }
      ],
      "name": "Approval",
      "type": "event"
    },
    {
      "anonymous": false,
      "inputs": [
        {
          "indexed": true,
          "internalType": "address",
          "name": "owner",
          "type": "address"
        },
        {
          "indexed": true,
          "internalType": "address",
          "name": "operator",
          "type": "address"
        },
        {
          "indexed": false,
          "internalType": "bool",
          "name": "approved",
          "type": "bool"
        }
      ],
      "name": "ApprovalForAll",
      "type": "event"
    },
    {
      "anonymous": false,
      "inputs": [
        {
          "indexed": true,
          "internalType": "address",
          "name": "from",
          "type": "address"
        },
        {
          "indexed": true,
          "internalType": "address",
          "name": "to",
          "type": "address"
        },
        {
          "indexed": true,
          "internalType": "uint256",
          "name": "tokenId",
          "type": "uint256"
        }
      ],
      "name": "Transfer",
      "type": "event"
    },
    {
      "inputs": [
        {
          "internalType": "address",
          "name": "to",
          "type": "address"
        },
        {
          "internalType": "uint256",
          "name": "tokenId",
          "type": "uint256"
        }
      ],
      "name": "approve",
      "outputs": [],
      "stateMutability": "nonpayable",
      "type": "function"
    },
    {
      "inputs": [
        {
          "internalType": "address",
          "name": "owner",
          "type": "address"
        }
      ],
      "name": "balanceOf",
      "outputs": [
        {
          "internalType": "uint256",
          "name": "",
          "type": "uint256"
        }
      ],
      "stateMutability": "view",
      "type": "function"
    },
    {
      "inputs": [
        {
          "internalType": "uint256",
          "name": "tokenId",
          "type": "uint256"
        }
      ],
      "name": "getApproved",
      "outputs": [
        {
          "internalType": "address",
          "name": "",
          "type": "address"
        }
      ],
      "stateMutability": "view",
      "type": "function"
    },
    {
      "inputs": [
        {
          "internalType": "uint256",
          "name": "tokenId",
          "type": "uint256"
        }
      ],
      "name": "getContributors",
      "outputs": [
        {
          "internalType": "string[]",
          "name": "",
          "type": "string[]"
        }
      ],
      "stateMutability": "view",
      "type": "function"
    },
    {
      "inputs": [
        {
          "internalType": "uint256",
          "name": "tokenId",
          "type": "uint256"
        }
      ],
      "name": "getTitle",
      "outputs": [
        {
          "internalType": "string",
          "name": "",
          "type": "string"
        }
      ],
      "stateMutability": "view",
      "type": "function"
    },
    {
      "inputs": [
        {
          "internalType": "address",
          "name": "owner",
          "type": "address"
        },
        {
          "internalType": "address",
          "name": "operator",
          "type": "address"
        }
      ],
      "name": "isApprovedForAll",
      "outputs": [
        {
          "internalType": "bool",
          "name": "",
          "type": "bool"
        }
      ],
      "stateMutability": "view",
      "type": "function"
    },
    {
      "inputs": [
        {
          "internalType": "string",
          "name": "contributor",
          "type": "string"
        },
        {
          "internalType": "string",
          "name": "title",
          "type": "string"
        },
        {
          "internalType": "string",
          "name": "uri",
          "type": "string"
        }
      ],
      "name": "mint",
      "outputs": [
        {
          "internalType": "uint256",
          "name": "tokenId",
          "type": "uint256"
        }
      ],
      "stateMutability": "nonpayable",
      "type": "function"
    },
    {
      "inputs": [
        {
          "internalType": "string[]",
          "name": "contributors",
          "type": "string[]"
        },
        {
          "internalType": "string",
          "name": "title",
          "type": "string"
        },
        {
          "internalType": "string",
          "name": "uri",
          "type": "string"
        }
      ],
      "name": "mint",
      "outputs": [
        {
          "internalType": "uint256",
          "name": "tokenId",
          "type": "uint256"
        }
      ],
      "stateMutability": "nonpayable",
      "type": "function"
    },
    {
      "inputs": [],
      "name": "name",
      "outputs": [
        {
          "internalType": "string",
          "name": "",
          "type": "string"
        }
      ],
      "stateMutability": "view",
      "type": "function"
    },
    {
      "inputs": [
        {
          "internalType": "uint256",
          "name": "tokenId",
          "type": "uint256"
        }
      ],
      "name": "ownerOf",
      "outputs": [
        {
          "internalType": "address",
          "name": "",
          "type": "address"
        }
      ],
      "stateMutability": "view",
      "type": "function"
    },
    {
      "inputs": [
        {
          "internalType": "address",
          "name": "from",
          "type": "address"
        },
        {
          "internalType": "address",
          "name": "to",
          "type": "address"
        },
        {
          "internalType": "uint256",
          "name": "tokenId",
          "type": "uint256"
        }
      ],
      "name": "safeTransferFrom",
      "outputs": [],
      "stateMutability": "nonpayable",
      "type": "function"
    },
    {
      "inputs": [
        {
          "internalType": "address",
          "name": "from",
          "type": "address"
        },
        {
          "internalType": "address",
          "name": "to",
          "type": "address"
        },
        {
          "internalType": "uint256",
          "name": "tokenId",
          "type": "uint256"
        },
        {
          "internalType": "bytes",
          "name": "data",
          "type": "bytes"
        }
      ],
      "name": "safeTransferFrom",
      "outputs": [],
      "stateMutability": "nonpayable",
      "type": "function"
    },
    {
      "inputs": [
        {
          "internalType": "address",
          "name": "operator",
          "type": "address"
        },
        {
          "internalType": "bool",
          "name": "approved",
          "type": "bool"
        }
      ],
      "name": "setApprovalForAll",
      "outputs": [],
      "stateMutability": "nonpayable",
      "type": "function"
    },
    {
      "inputs": [
        {
          "internalType": "bytes4",
          "name": "interfaceId",
          "type": "bytes4"
        }
      ],
      "name": "supportsInterface",
      "outputs": [
        {
          "internalType": "bool",
          "name": "",
          "type": "bool"
        }
      ],
      "stateMutability": "view",
      "type": "function"
    },
    {
      "inputs": [],
      "name": "symbol",
      "outputs": [
        {
          "internalType": "string",
          "name": "",
          "type": "string"
        }
      ],
      "stateMutability": "view",
      "type": "function"
    },
    {
      "inputs": [
        {
          "internalType": "uint256",
          "name": "index",
          "type": "uint256"
        }
      ],
      "name": "tokenByIndex",
      "outputs": [
        {
          "internalType": "uint256",
          "name": "",
          "type": "uint256"
        }
      ],
      "stateMutability": "view",
      "type": "function"
    },
    {
      "inputs": [
        {
          "internalType": "address",
          "name": "owner",
          "type": "address"
        },
        {
          "internalType": "uint256",
          "name": "index",
          "type": "uint256"
        }
      ],
      "name": "tokenOfOwnerByIndex",
      "outputs": [
        {
          "internalType": "uint256",
          "name": "",
          "type": "uint256"
        }
      ],
      "stateMutability": "view",
      "type": "function"
    },
    {
      "inputs": [
        {
          "internalType": "uint256",
          "name": "tokenId",
          "type": "uint256"
        }
      ],
      "name": "tokenURI",
      "outputs": [
        {
          "internalType": "string",
          "name": "",
          "type": "string"
        }
      ],
      "stateMutability": "view",
      "type": "function"
    },
    {
      "inputs": [],
      "name": "totalSupply",
      "outputs": [
        {
          "internalType": "uint256",
          "name": "",
          "type": "uint256"
        }
      ],
      "stateMutability": "view",
      "type": "function"
    },
    {
      "inputs": [
        {
          "internalType": "address",
          "name": "from",
          "type": "address"
        },
        {
          "internalType": "address",
          "name": "to",
          "type": "address"
        },
        {
          "internalType": "uint256",
          "name": "tokenId",
          "type": "uint256"
        }
      ],
      "name": "transferFrom",
      "outputs": [],
      "stateMutability": "nonpayable",
      "type": "function"
    }
  ],
  "bytecode": {
    "object": "0x60806040523480156200001157600080fd5b50604080518082018252600681526553686565747360d01b60208083019182528351808501909452600384526214d21560ea1b9084015281519192916200005b916000916200007a565b508051620000719060019060208401906200007a565b5050506200015c565b828054620000889062000120565b90600052602060002090601f016020900481019282620000ac5760008555620000f7565b82601f10620000c757805160ff1916838001178555620000f7565b82800160010185558215620000f7579182015b82811115620000f7578251825591602001919060010190620000da565b506200010592915062000109565b5090565b5b808211156200010557600081556001016200010a565b600181811c908216806200013557607f821691505b6020821081036200015657634e487b7160e01b600052602260045260246000fd5b50919050565b61208c806200016c6000396000f3fe608060405234801561001057600080fd5b506004361061012c5760003560e01c80636352211e116100ad578063b88d4fde11610071578063b88d4fde14610280578063c87b56dd14610293578063d645ddf6146102a6578063e985e9c5146102b9578063ec0e8548146102f557600080fd5b80636352211e1461022c57806370a082311461023f578063929a79b11461025257806395d89b4114610265578063a22cb4651461026d57600080fd5b806323b872dd116100f457806323b872dd146101c05780632f745c59146101d35780633c1ab00f146101e657806342842e0e146102065780634f6ccce71461021957600080fd5b806301ffc9a71461013157806306fdde0314610159578063081812fc1461016e578063095ea7b31461019957806318160ddd146101ae575b600080fd5b61014461013f36600461199b565b610308565b60405190151581526020015b60405180910390f35b610161610319565b6040516101509190611a10565b61018161017c366004611a23565b6103ab565b6040516001600160a01b039091168152602001610150565b6101ac6101a7366004611a58565b6103d2565b005b6008545b604051908152602001610150565b6101ac6101ce366004611a82565b6104ec565b6101b26101e1366004611a58565b61051d565b6101f96101f4366004611a23565b6105b3565b6040516101509190611abe565b6101ac610214366004611a82565b61069f565b6101b2610227366004611a23565b6106ba565b61018161023a366004611a23565b61074d565b6101b261024d366004611b20565b6107ad565b610161610260366004611a23565b610833565b6101616108d5565b6101ac61027b366004611b3b565b6108e4565b6101ac61028e366004611c16565b6108f3565b6101616102a1366004611a23565b61092b565b6101b26102b4366004611cb2565b610936565b6101446102c7366004611d3a565b6001600160a01b03918216600090815260056020908152604080832093909416825291909152205460ff1690565b6101b2610303366004611d6d565b6109b4565b6000610313826109ee565b92915050565b60606000805461032890611e3e565b80601f016020809104026020016040519081016040528092919081815260200182805461035490611e3e565b80156103a15780601f10610376576101008083540402835291602001916103a1565b820191906000526020600020905b81548152906001019060200180831161038457829003601f168201915b5050505050905090565b60006103b682610a13565b506000908152600460205260409020546001600160a01b031690565b60006103dd8261074d565b9050806001600160a01b0316836001600160a01b03160361044f5760405162461bcd60e51b815260206004820152602160248201527f4552433732313a20617070726f76616c20746f2063757272656e74206f776e656044820152603960f91b60648201526084015b60405180910390fd5b336001600160a01b038216148061046b575061046b81336102c7565b6104dd5760405162461bcd60e51b815260206004820152603d60248201527f4552433732313a20617070726f76652063616c6c6572206973206e6f7420746f60448201527f6b656e206f776e6572206f7220617070726f76656420666f7220616c6c0000006064820152608401610446565b6104e78383610a75565b505050565b6104f63382610ae3565b6105125760405162461bcd60e51b815260040161044690611e78565b6104e7838383610b62565b6000610528836107ad565b821061058a5760405162461bcd60e51b815260206004820152602b60248201527f455243373231456e756d657261626c653a206f776e657220696e646578206f7560448201526a74206f6620626f756e647360a81b6064820152608401610446565b506001600160a01b03919091166000908152600660209081526040808320938352929052205490565b6060600c6000838152602001908152602001600020805480602002602001604051908101604052809291908181526020016000905b8282101561069457838290600052602060002001805461060790611e3e565b80601f016020809104026020016040519081016040528092919081815260200182805461063390611e3e565b80156106805780601f1061065557610100808354040283529160200191610680565b820191906000526020600020905b81548152906001019060200180831161066357829003601f168201915b5050505050815260200190600101906105e8565b505050509050919050565b6104e7838383604051806020016040528060008152506108f3565b60006106c560085490565b82106107285760405162461bcd60e51b815260206004820152602c60248201527f455243373231456e756d657261626c653a20676c6f62616c20696e646578206f60448201526b7574206f6620626f756e647360a01b6064820152608401610446565b6008828154811061073b5761073b611ec5565b90600052602060002001549050919050565b6000818152600260205260408120546001600160a01b0316806103135760405162461bcd60e51b8152602060048201526018602482015277115490cdcc8c4e881a5b9d985b1a59081d1bdad95b88125160421b6044820152606401610446565b60006001600160a01b0382166108175760405162461bcd60e51b815260206004820152602960248201527f4552433732313a2061646472657373207a65726f206973206e6f7420612076616044820152683634b21037bbb732b960b91b6064820152608401610446565b506001600160a01b031660009081526003602052604090205490565b6000818152600d6020526040902080546060919061085090611e3e565b80601f016020809104026020016040519081016040528092919081815260200182805461087c90611e3e565b80156108c95780601f1061089e576101008083540402835291602001916108c9565b820191906000526020600020905b8154815290600101906020018083116108ac57829003601f168201915b50505050509050919050565b60606001805461032890611e3e565b6108ef338383610cd3565b5050565b6108fd3383610ae3565b6109195760405162461bcd60e51b815260040161044690611e78565b61092584848484610da1565b50505050565b606061031382610dd4565b6000610941600b5490565b9050610951600b80546001019055565b60408051602080820183528682526000848152600c909152919091206109789160016117ef565b506000818152600d6020908152604090912084516109989286019061184c565b506109a33382610edc565b6109ad8183610ef6565b9392505050565b60006109bf600b5490565b90506109cf600b80546001019055565b6000818152600c602090815260409091208551610978928701906118cc565b60006001600160e01b0319821663780e9d6360e01b1480610313575061031382610f90565b6000818152600260205260409020546001600160a01b0316610a725760405162461bcd60e51b8152602060048201526018602482015277115490cdcc8c4e881a5b9d985b1a59081d1bdad95b88125160421b6044820152606401610446565b50565b600081815260046020526040902080546001600160a01b0319166001600160a01b0384169081179091558190610aaa8261074d565b6001600160a01b03167f8c5be1e5ebec7d5bd14f71427d1e84f3dd0314c0f7b2291e5b200ac8c7c3b92560405160405180910390a45050565b600080610aef8361074d565b9050806001600160a01b0316846001600160a01b03161480610b3657506001600160a01b0380821660009081526005602090815260408083209388168352929052205460ff165b80610b5a5750836001600160a01b0316610b4f846103ab565b6001600160a01b0316145b949350505050565b826001600160a01b0316610b758261074d565b6001600160a01b031614610b9b5760405162461bcd60e51b815260040161044690611edb565b6001600160a01b038216610bfd5760405162461bcd60e51b8152602060048201526024808201527f4552433732313a207472616e7366657220746f20746865207a65726f206164646044820152637265737360e01b6064820152608401610446565b610c0a8383836001610fe0565b826001600160a01b0316610c1d8261074d565b6001600160a01b031614610c435760405162461bcd60e51b815260040161044690611edb565b600081815260046020908152604080832080546001600160a01b03199081169091556001600160a01b0387811680865260038552838620805460001901905590871680865283862080546001019055868652600290945282852080549092168417909155905184937fddf252ad1be2c89b69c2b068fc378daa952ba7f163c4a11628f55a4df523b3ef91a4505050565b816001600160a01b0316836001600160a01b031603610d345760405162461bcd60e51b815260206004820152601960248201527f4552433732313a20617070726f766520746f2063616c6c6572000000000000006044820152606401610446565b6001600160a01b03838116600081815260056020908152604080832094871680845294825291829020805460ff191686151590811790915591519182527f17307eab39ab6107e8899845ad3d59bd9653f200f220920489ca2b5937696c31910160405180910390a3505050565b610dac848484610b62565b610db884848484610fec565b6109255760405162461bcd60e51b815260040161044690611f20565b6060610ddf82610a13565b6000828152600a602052604081208054610df890611e3e565b80601f0160208091040260200160405190810160405280929190818152602001828054610e2490611e3e565b8015610e715780601f10610e4657610100808354040283529160200191610e71565b820191906000526020600020905b815481529060010190602001808311610e5457829003601f168201915b505050505090506000610e8f60408051602081019091526000815290565b90508051600003610ea1575092915050565b815115610ed3578082604051602001610ebb929190611f72565b60405160208183030381529060405292505050919050565b610b5a846110ed565b6108ef828260405180602001604052806000815250611160565b6000828152600260205260409020546001600160a01b0316610f715760405162461bcd60e51b815260206004820152602e60248201527f45524337323155524953746f726167653a2055524920736574206f66206e6f6e60448201526d32bc34b9ba32b73a103a37b5b2b760911b6064820152608401610446565b6000828152600a6020908152604090912082516104e79284019061184c565b60006001600160e01b031982166380ac58cd60e01b1480610fc157506001600160e01b03198216635b5e139f60e01b145b8061031357506301ffc9a760e01b6001600160e01b0319831614610313565b61092584848484611193565b60006001600160a01b0384163b156110e257604051630a85bd0160e11b81526001600160a01b0385169063150b7a0290611030903390899088908890600401611fa1565b6020604051808303816000875af192505050801561106b575060408051601f3d908101601f1916820190925261106891810190611fde565b60015b6110c8573d808015611099576040519150601f19603f3d011682016040523d82523d6000602084013e61109e565b606091505b5080516000036110c05760405162461bcd60e51b815260040161044690611f20565b805181602001fd5b6001600160e01b031916630a85bd0160e11b149050610b5a565b506001949350505050565b60606110f882610a13565b600061110f60408051602081019091526000815290565b9050600081511161112f57604051806020016040528060008152506109ad565b80611139846112d3565b60405160200161114a929190611f72565b6040516020818303038152906040529392505050565b61116a8383611366565b6111776000848484610fec565b6104e75760405162461bcd60e51b815260040161044690611f20565b61119f848484846114ff565b600181111561120e5760405162461bcd60e51b815260206004820152603560248201527f455243373231456e756d657261626c653a20636f6e7365637574697665207472604482015274185b9cd9995c9cc81b9bdd081cdd5c1c1bdc9d1959605a1b6064820152608401610446565b816001600160a01b03851661126a5761126581600880546000838152600960205260408120829055600182018355919091527ff3f7a9fe364faab93b216da50a3214154f22a0a2b415b23a84c8169e8b636ee30155565b61128d565b836001600160a01b0316856001600160a01b03161461128d5761128d8582611587565b6001600160a01b0384166112a9576112a481611624565b6112cc565b846001600160a01b0316846001600160a01b0316146112cc576112cc84826116d3565b5050505050565b606060006112e083611717565b600101905060008167ffffffffffffffff81111561130057611300611b77565b6040519080825280601f01601f19166020018201604052801561132a576020820181803683370190505b5090508181016020015b600019016f181899199a1a9b1b9c1cb0b131b232b360811b600a86061a8153600a850494508461133457509392505050565b6001600160a01b0382166113bc5760405162461bcd60e51b815260206004820181905260248201527f4552433732313a206d696e7420746f20746865207a65726f20616464726573736044820152606401610446565b6000818152600260205260409020546001600160a01b0316156114215760405162461bcd60e51b815260206004820152601c60248201527f4552433732313a20746f6b656e20616c7265616479206d696e746564000000006044820152606401610446565b61142f600083836001610fe0565b6000818152600260205260409020546001600160a01b0316156114945760405162461bcd60e51b815260206004820152601c60248201527f4552433732313a20746f6b656e20616c7265616479206d696e746564000000006044820152606401610446565b6001600160a01b038216600081815260036020908152604080832080546001019055848352600290915280822080546001600160a01b0319168417905551839291907fddf252ad1be2c89b69c2b068fc378daa952ba7f163c4a11628f55a4df523b3ef908290a45050565b6001811115610925576001600160a01b03841615611545576001600160a01b0384166000908152600360205260408120805483929061153f908490612011565b90915550505b6001600160a01b03831615610925576001600160a01b0383166000908152600360205260408120805483929061157c908490612028565b909155505050505050565b60006001611594846107ad565b61159e9190612011565b6000838152600760205260409020549091508082146115f1576001600160a01b03841660009081526006602090815260408083208584528252808320548484528184208190558352600790915290208190555b5060009182526007602090815260408084208490556001600160a01b039094168352600681528383209183525290812055565b60085460009061163690600190612011565b6000838152600960205260408120546008805493945090928490811061165e5761165e611ec5565b90600052602060002001549050806008838154811061167f5761167f611ec5565b60009182526020808320909101929092558281526009909152604080822084905585825281205560088054806116b7576116b7612040565b6001900381819060005260206000200160009055905550505050565b60006116de836107ad565b6001600160a01b039093166000908152600660209081526040808320868452825280832085905593825260079052919091209190915550565b60008072184f03e93ff9f4daa797ed6e38ed64bf6a1f0160401b83106117565772184f03e93ff9f4daa797ed6e38ed64bf6a1f0160401b830492506040015b6d04ee2d6d415b85acef81000000008310611782576d04ee2d6d415b85acef8100000000830492506020015b662386f26fc1000083106117a057662386f26fc10000830492506010015b6305f5e10083106117b8576305f5e100830492506008015b61271083106117cc57612710830492506004015b606483106117de576064830492506002015b600a83106103135760010192915050565b82805482825590600052602060002090810192821561183c579160200282015b8281111561183c578251805161182c91849160209091019061184c565b509160200191906001019061180f565b50611848929150611919565b5090565b82805461185890611e3e565b90600052602060002090601f01602090048101928261187a57600085556118c0565b82601f1061189357805160ff19168380011785556118c0565b828001600101855582156118c0579182015b828111156118c05782518255916020019190600101906118a5565b50611848929150611936565b82805482825590600052602060002090810192821561183c579160200282015b8281111561183c578251805161190991849160209091019061184c565b50916020019190600101906118ec565b8082111561184857600061192d828261194b565b50600101611919565b5b808211156118485760008155600101611937565b50805461195790611e3e565b6000825580601f10611967575050565b601f016020900490600052602060002090810190610a729190611936565b6001600160e01b031981168114610a7257600080fd5b6000602082840312156119ad57600080fd5b81356109ad81611985565b60005b838110156119d35781810151838201526020016119bb565b838111156109255750506000910152565b600081518084526119fc8160208601602086016119b8565b601f01601f19169290920160200192915050565b6020815260006109ad60208301846119e4565b600060208284031215611a3557600080fd5b5035919050565b80356001600160a01b0381168114611a5357600080fd5b919050565b60008060408385031215611a6b57600080fd5b611a7483611a3c565b946020939093013593505050565b600080600060608486031215611a9757600080fd5b611aa084611a3c565b9250611aae60208501611a3c565b9150604084013590509250925092565b6000602080830181845280855180835260408601915060408160051b870101925083870160005b82811015611b1357603f19888603018452611b018583516119e4565b94509285019290850190600101611ae5565b5092979650505050505050565b600060208284031215611b3257600080fd5b6109ad82611a3c565b60008060408385031215611b4e57600080fd5b611b5783611a3c565b915060208301358015158114611b6c57600080fd5b809150509250929050565b634e487b7160e01b600052604160045260246000fd5b604051601f8201601f1916810167ffffffffffffffff81118282101715611bb657611bb6611b77565b604052919050565b600067ffffffffffffffff831115611bd857611bd8611b77565b611beb601f8401601f1916602001611b8d565b9050828152838383011115611bff57600080fd5b828260208301376000602084830101529392505050565b60008060008060808587031215611c2c57600080fd5b611c3585611a3c565b9350611c4360208601611a3c565b925060408501359150606085013567ffffffffffffffff811115611c6657600080fd5b8501601f81018713611c7757600080fd5b611c8687823560208401611bbe565b91505092959194509250565b600082601f830112611ca357600080fd5b6109ad83833560208501611bbe565b600080600060608486031215611cc757600080fd5b833567ffffffffffffffff80821115611cdf57600080fd5b611ceb87838801611c92565b94506020860135915080821115611d0157600080fd5b611d0d87838801611c92565b93506040860135915080821115611d2357600080fd5b50611d3086828701611c92565b9150509250925092565b60008060408385031215611d4d57600080fd5b611d5683611a3c565b9150611d6460208401611a3c565b90509250929050565b600080600060608486031215611d8257600080fd5b833567ffffffffffffffff80821115611d9a57600080fd5b818601915086601f830112611dae57600080fd5b8135602082821115611dc257611dc2611b77565b8160051b611dd1828201611b8d565b928352848101820192828101908b851115611deb57600080fd5b83870192505b84831015611e2757823586811115611e095760008081fd5b611e178d86838b0101611c92565b8352509183019190830190611df1565b9850505087013592505080821115611d0157600080fd5b600181811c90821680611e5257607f821691505b602082108103611e7257634e487b7160e01b600052602260045260246000fd5b50919050565b6020808252602d908201527f4552433732313a2063616c6c6572206973206e6f7420746f6b656e206f776e6560408201526c1c881bdc88185c1c1c9bdd9959609a1b606082015260800190565b634e487b7160e01b600052603260045260246000fd5b60208082526025908201527f4552433732313a207472616e736665722066726f6d20696e636f72726563742060408201526437bbb732b960d91b606082015260800190565b60208082526032908201527f4552433732313a207472616e7366657220746f206e6f6e20455243373231526560408201527131b2b4bb32b91034b6b83632b6b2b73a32b960711b606082015260800190565b60008351611f848184602088016119b8565b835190830190611f988183602088016119b8565b01949350505050565b6001600160a01b0385811682528416602082015260408101839052608060608201819052600090611fd4908301846119e4565b9695505050505050565b600060208284031215611ff057600080fd5b81516109ad81611985565b634e487b7160e01b600052601160045260246000fd5b60008282101561202357612023611ffb565b500390565b6000821982111561203b5761203b611ffb565b500190565b634e487b7160e01b600052603160045260246000fdfea26469706673582212203d353c1073f8ac75877e85bba59d265196fceaddc10b6fd3703b03b16f42be9264736f6c634300080d0033",
    "linkReferences": {}
  },
  "methodIdentifiers": {
    "approve(address,uint256)": "095ea7b3",
    "balanceOf(address)": "70a08231",
    "getApproved(uint256)": "081812fc",
    "getContributors(uint256)": "3c1ab00f",
    "getTitle(uint256)": "929a79b1",
    "isApprovedForAll(address,address)": "e985e9c5",
    "mint(string,string,string)": "d645ddf6",
    "mint(string[],string,string)": "ec0e8548",
    "name()": "06fdde03",
    "ownerOf(uint256)": "6352211e",
    "safeTransferFrom(address,address,uint256)": "42842e0e",
    "safeTransferFrom(address,address,uint256,bytes)": "b88d4fde",
    "setApprovalForAll(address,bool)": "a22cb465",
    "supportsInterface(bytes4)": "01ffc9a7",
    "symbol()": "95d89b41",
    "tokenByIndex(uint256)": "4f6ccce7",
    "tokenOfOwnerByIndex(address,uint256)": "2f745c59",
    "tokenURI(uint256)": "c87b56dd",
    "totalSupply()": "18160ddd",
    "transferFrom(address,address,uint256)": "23b872dd"
  },
  "id": 28
}