{
  "abi": [
    {
      "inputs": [],
      "stateMutability": "nonpayable",
      "type": "constructor"
    },
    {
      "anonymous": false,
      "inputs": [
        {
          "indexed": true,
          "internalType": "address",
          "name": "owner",
          "type": "address"
        },
        {
          "indexed": true,
          "internalType": "address",
          "name": "approved",
          "type": "address"
        },
        {
          "indexed": true,
          "internalType": "uint256",
          "name": "tokenId",
          "type": "uint256"
        }
      ],
      "name": "Approval",
      "type": "event"
    },
    {
      "anonymous": false,
      "inputs": [
        {
          "indexed": true,
          "internalType": "address",
          "name": "owner",
          "type": "address"
        },
        {
          "indexed": true,
          "internalType": "address",
          "name": "operator",
          "type": "address"
        },
        {
          "indexed": false,
          "internalType": "bool",
          "name": "approved",
          "type": "bool"
        }
      ],
      "name": "ApprovalForAll",
      "type": "event"
    },
    {
      "anonymous": false,
      "inputs": [
        {
          "indexed": true,
          "internalType": "address",
          "name": "from",
          "type": "address"
        },
        {
          "indexed": true,
          "internalType": "address",
          "name": "to",
          "type": "address"
        },
        {
          "indexed": true,
          "internalType": "uint256",
          "name": "tokenId",
          "type": "uint256"
        }
      ],
      "name": "Transfer",
      "type": "event"
    },
    {
      "inputs": [
        {
          "internalType": "address",
          "name": "to",
          "type": "address"
        },
        {
          "internalType": "uint256",
          "name": "tokenId",
          "type": "uint256"
        }
      ],
      "name": "approve",
      "outputs": [],
      "stateMutability": "nonpayable",
      "type": "function"
    },
    {
      "inputs": [
        {
          "internalType": "address",
          "name": "owner",
          "type": "address"
        }
      ],
      "name": "balanceOf",
      "outputs": [
        {
          "internalType": "uint256",
          "name": "",
          "type": "uint256"
        }
      ],
      "stateMutability": "view",
      "type": "function"
    },
    {
      "inputs": [
        {
          "internalType": "uint256",
          "name": "tokenId",
          "type": "uint256"
        }
      ],
      "name": "getApproved",
      "outputs": [
        {
          "internalType": "address",
          "name": "",
          "type": "address"
        }
      ],
      "stateMutability": "view",
      "type": "function"
    },
    {
      "inputs": [
        {
          "internalType": "uint256",
          "name": "tokenId",
          "type": "uint256"
        }
      ],
      "name": "getContributors",
      "outputs": [
        {
          "internalType": "string[]",
          "name": "",
          "type": "string[]"
        }
      ],
      "stateMutability": "view",
      "type": "function"
    },
    {
      "inputs": [
        {
          "internalType": "uint256",
          "name": "tokenId",
          "type": "uint256"
        }
      ],
      "name": "getTitle",
      "outputs": [
        {
          "internalType": "string",
          "name": "",
          "type": "string"
        }
      ],
      "stateMutability": "view",
      "type": "function"
    },
    {
      "inputs": [
        {
          "internalType": "address",
          "name": "owner",
          "type": "address"
        },
        {
          "internalType": "address",
          "name": "operator",
          "type": "address"
        }
      ],
      "name": "isApprovedForAll",
      "outputs": [
        {
          "internalType": "bool",
          "name": "",
          "type": "bool"
        }
      ],
      "stateMutability": "view",
      "type": "function"
    },
    {
      "inputs": [
        {
          "internalType": "string[]",
          "name": "contributors",
          "type": "string[]"
        },
        {
          "internalType": "string",
          "name": "title",
          "type": "string"
        },
        {
          "internalType": "string",
          "name": "uri",
          "type": "string"
        }
      ],
      "name": "mint",
      "outputs": [
        {
          "internalType": "uint256",
          "name": "tokenId",
          "type": "uint256"
        }
      ],
      "stateMutability": "nonpayable",
      "type": "function"
    },
    {
      "inputs": [],
      "name": "name",
      "outputs": [
        {
          "internalType": "string",
          "name": "",
          "type": "string"
        }
      ],
      "stateMutability": "view",
      "type": "function"
    },
    {
      "inputs": [
        {
          "internalType": "uint256",
          "name": "tokenId",
          "type": "uint256"
        }
      ],
      "name": "ownerOf",
      "outputs": [
        {
          "internalType": "address",
          "name": "",
          "type": "address"
        }
      ],
      "stateMutability": "view",
      "type": "function"
    },
    {
      "inputs": [
        {
          "internalType": "address",
          "name": "from",
          "type": "address"
        },
        {
          "internalType": "address",
          "name": "to",
          "type": "address"
        },
        {
          "internalType": "uint256",
          "name": "tokenId",
          "type": "uint256"
        }
      ],
      "name": "safeTransferFrom",
      "outputs": [],
      "stateMutability": "nonpayable",
      "type": "function"
    },
    {
      "inputs": [
        {
          "internalType": "address",
          "name": "from",
          "type": "address"
        },
        {
          "internalType": "address",
          "name": "to",
          "type": "address"
        },
        {
          "internalType": "uint256",
          "name": "tokenId",
          "type": "uint256"
        },
        {
          "internalType": "bytes",
          "name": "data",
          "type": "bytes"
        }
      ],
      "name": "safeTransferFrom",
      "outputs": [],
      "stateMutability": "nonpayable",
      "type": "function"
    },
    {
      "inputs": [
        {
          "internalType": "address",
          "name": "operator",
          "type": "address"
        },
        {
          "internalType": "bool",
          "name": "approved",
          "type": "bool"
        }
      ],
      "name": "setApprovalForAll",
      "outputs": [],
      "stateMutability": "nonpayable",
      "type": "function"
    },
    {
      "inputs": [
        {
          "internalType": "bytes4",
          "name": "interfaceId",
          "type": "bytes4"
        }
      ],
      "name": "supportsInterface",
      "outputs": [
        {
          "internalType": "bool",
          "name": "",
          "type": "bool"
        }
      ],
      "stateMutability": "view",
      "type": "function"
    },
    {
      "inputs": [],
      "name": "symbol",
      "outputs": [
        {
          "internalType": "string",
          "name": "",
          "type": "string"
        }
      ],
      "stateMutability": "view",
      "type": "function"
    },
    {
      "inputs": [
        {
          "internalType": "uint256",
          "name": "index",
          "type": "uint256"
        }
      ],
      "name": "tokenByIndex",
      "outputs": [
        {
          "internalType": "uint256",
          "name": "",
          "type": "uint256"
        }
      ],
      "stateMutability": "view",
      "type": "function"
    },
    {
      "inputs": [
        {
          "internalType": "address",
          "name": "owner",
          "type": "address"
        },
        {
          "internalType": "uint256",
          "name": "index",
          "type": "uint256"
        }
      ],
      "name": "tokenOfOwnerByIndex",
      "outputs": [
        {
          "internalType": "uint256",
          "name": "",
          "type": "uint256"
        }
      ],
      "stateMutability": "view",
      "type": "function"
    },
    {
      "inputs": [
        {
          "internalType": "uint256",
          "name": "tokenId",
          "type": "uint256"
        }
      ],
      "name": "tokenURI",
      "outputs": [
        {
          "internalType": "string",
          "name": "",
          "type": "string"
        }
      ],
      "stateMutability": "view",
      "type": "function"
    },
    {
      "inputs": [],
      "name": "totalSupply",
      "outputs": [
        {
          "internalType": "uint256",
          "name": "",
          "type": "uint256"
        }
      ],
      "stateMutability": "view",
      "type": "function"
    },
    {
      "inputs": [
        {
          "internalType": "address",
          "name": "from",
          "type": "address"
        },
        {
          "internalType": "address",
          "name": "to",
          "type": "address"
        },
        {
          "internalType": "uint256",
          "name": "tokenId",
          "type": "uint256"
        }
      ],
      "name": "transferFrom",
      "outputs": [],
      "stateMutability": "nonpayable",
      "type": "function"
    }
  ],
  "bytecode": {
    "object": "0x60806040523480156200001157600080fd5b506040518060400160405280600681526020016553686565747360d01b8152506040518060400160405280600381526020016214d21560ea1b81525081600090816200005e91906200011b565b5060016200006d82826200011b565b505050620001e7565b634e487b7160e01b600052604160045260246000fd5b600181811c90821680620000a157607f821691505b602082108103620000c257634e487b7160e01b600052602260045260246000fd5b50919050565b601f8211156200011657600081815260208120601f850160051c81016020861015620000f15750805b601f850160051c820191505b818110156200011257828155600101620000fd565b5050505b505050565b81516001600160401b0381111562000137576200013762000076565b6200014f816200014884546200008c565b84620000c8565b602080601f8311600181146200018757600084156200016e5750858301515b600019600386901b1c1916600185901b17855562000112565b600085815260208120601f198616915b82811015620001b85788860151825594840194600190910190840162000197565b5085821015620001d75787850151600019600388901b60f8161c191681555b5050505050600190811b01905550565b611ff380620001f76000396000f3fe608060405234801561001057600080fd5b50600436106101215760003560e01c80634f6ccce7116100ad578063a22cb46511610071578063a22cb46514610262578063b88d4fde14610275578063c87b56dd14610288578063e985e9c51461029b578063ec0e8548146102d757600080fd5b80634f6ccce71461020e5780636352211e1461022157806370a0823114610234578063929a79b11461024757806395d89b411461025a57600080fd5b806318160ddd116100f457806318160ddd146101a357806323b872dd146101b55780632f745c59146101c85780633c1ab00f146101db57806342842e0e146101fb57600080fd5b806301ffc9a71461012657806306fdde031461014e578063081812fc14610163578063095ea7b31461018e575b600080fd5b610139610134366004611854565b6102ea565b60405190151581526020015b60405180910390f35b6101566102fb565b60405161014591906118c1565b6101766101713660046118d4565b61038d565b6040516001600160a01b039091168152602001610145565b6101a161019c366004611909565b6103b4565b005b6008545b604051908152602001610145565b6101a16101c3366004611933565b6104ce565b6101a76101d6366004611909565b6104ff565b6101ee6101e93660046118d4565b610595565b604051610145919061196f565b6101a1610209366004611933565b610681565b6101a761021c3660046118d4565b61069c565b61017661022f3660046118d4565b61072f565b6101a76102423660046119d1565b61078f565b6101566102553660046118d4565b610815565b6101566108b7565b6101a16102703660046119ec565b6108c6565b6101a1610283366004611ac7565b6108d5565b6101566102963660046118d4565b61090d565b6101396102a9366004611b43565b6001600160a01b03918216600090815260056020908152604080832093909416825291909152205460ff1690565b6101a76102e5366004611b96565b610918565b60006102f582610987565b92915050565b60606000805461030a90611ca0565b80601f016020809104026020016040519081016040528092919081815260200182805461033690611ca0565b80156103835780601f1061035857610100808354040283529160200191610383565b820191906000526020600020905b81548152906001019060200180831161036657829003601f168201915b5050505050905090565b6000610398826109ac565b506000908152600460205260409020546001600160a01b031690565b60006103bf8261072f565b9050806001600160a01b0316836001600160a01b0316036104315760405162461bcd60e51b815260206004820152602160248201527f4552433732313a20617070726f76616c20746f2063757272656e74206f776e656044820152603960f91b60648201526084015b60405180910390fd5b336001600160a01b038216148061044d575061044d81336102a9565b6104bf5760405162461bcd60e51b815260206004820152603d60248201527f4552433732313a20617070726f76652063616c6c6572206973206e6f7420746f60448201527f6b656e206f776e6572206f7220617070726f76656420666f7220616c6c0000006064820152608401610428565b6104c98383610a0e565b505050565b6104d83382610a7c565b6104f45760405162461bcd60e51b815260040161042890611cda565b6104c9838383610afb565b600061050a8361078f565b821061056c5760405162461bcd60e51b815260206004820152602b60248201527f455243373231456e756d657261626c653a206f776e657220696e646578206f7560448201526a74206f6620626f756e647360a81b6064820152608401610428565b506001600160a01b03919091166000908152600660209081526040808320938352929052205490565b6060600c6000838152602001908152602001600020805480602002602001604051908101604052809291908181526020016000905b828210156106765783829060005260206000200180546105e990611ca0565b80601f016020809104026020016040519081016040528092919081815260200182805461061590611ca0565b80156106625780601f1061063757610100808354040283529160200191610662565b820191906000526020600020905b81548152906001019060200180831161064557829003601f168201915b5050505050815260200190600101906105ca565b505050509050919050565b6104c9838383604051806020016040528060008152506108d5565b60006106a760085490565b821061070a5760405162461bcd60e51b815260206004820152602c60248201527f455243373231456e756d657261626c653a20676c6f62616c20696e646578206f60448201526b7574206f6620626f756e647360a01b6064820152608401610428565b6008828154811061071d5761071d611d27565b90600052602060002001549050919050565b6000818152600260205260408120546001600160a01b0316806102f55760405162461bcd60e51b8152602060048201526018602482015277115490cdcc8c4e881a5b9d985b1a59081d1bdad95b88125160421b6044820152606401610428565b60006001600160a01b0382166107f95760405162461bcd60e51b815260206004820152602960248201527f4552433732313a2061646472657373207a65726f206973206e6f7420612076616044820152683634b21037bbb732b960b91b6064820152608401610428565b506001600160a01b031660009081526003602052604090205490565b6000818152600d6020526040902080546060919061083290611ca0565b80601f016020809104026020016040519081016040528092919081815260200182805461085e90611ca0565b80156108ab5780601f10610880576101008083540402835291602001916108ab565b820191906000526020600020905b81548152906001019060200180831161088e57829003601f168201915b50505050509050919050565b60606001805461030a90611ca0565b6108d1338383610c6c565b5050565b6108df3383610a7c565b6108fb5760405162461bcd60e51b815260040161042890611cda565b61090784848484610d3a565b50505050565b60606102f582610d6d565b6000610923600b5490565b9050610933600b80546001019055565b6000818152600c60209081526040909120855161095292870190611781565b506000818152600d6020526040902061096b8482611d8b565b506109763382610e75565b6109808183610e8f565b9392505050565b60006001600160e01b0319821663780e9d6360e01b14806102f557506102f582610f22565b6000818152600260205260409020546001600160a01b0316610a0b5760405162461bcd60e51b8152602060048201526018602482015277115490cdcc8c4e881a5b9d985b1a59081d1bdad95b88125160421b6044820152606401610428565b50565b600081815260046020526040902080546001600160a01b0319166001600160a01b0384169081179091558190610a438261072f565b6001600160a01b03167f8c5be1e5ebec7d5bd14f71427d1e84f3dd0314c0f7b2291e5b200ac8c7c3b92560405160405180910390a45050565b600080610a888361072f565b9050806001600160a01b0316846001600160a01b03161480610acf57506001600160a01b0380821660009081526005602090815260408083209388168352929052205460ff165b80610af35750836001600160a01b0316610ae88461038d565b6001600160a01b0316145b949350505050565b826001600160a01b0316610b0e8261072f565b6001600160a01b031614610b345760405162461bcd60e51b815260040161042890611e4b565b6001600160a01b038216610b965760405162461bcd60e51b8152602060048201526024808201527f4552433732313a207472616e7366657220746f20746865207a65726f206164646044820152637265737360e01b6064820152608401610428565b610ba38383836001610f72565b826001600160a01b0316610bb68261072f565b6001600160a01b031614610bdc5760405162461bcd60e51b815260040161042890611e4b565b600081815260046020908152604080832080546001600160a01b03199081169091556001600160a01b0387811680865260038552838620805460001901905590871680865283862080546001019055868652600290945282852080549092168417909155905184937fddf252ad1be2c89b69c2b068fc378daa952ba7f163c4a11628f55a4df523b3ef91a4505050565b816001600160a01b0316836001600160a01b031603610ccd5760405162461bcd60e51b815260206004820152601960248201527f4552433732313a20617070726f766520746f2063616c6c6572000000000000006044820152606401610428565b6001600160a01b03838116600081815260056020908152604080832094871680845294825291829020805460ff191686151590811790915591519182527f17307eab39ab6107e8899845ad3d59bd9653f200f220920489ca2b5937696c31910160405180910390a3505050565b610d45848484610afb565b610d5184848484610f7e565b6109075760405162461bcd60e51b815260040161042890611e90565b6060610d78826109ac565b6000828152600a602052604081208054610d9190611ca0565b80601f0160208091040260200160405190810160405280929190818152602001828054610dbd90611ca0565b8015610e0a5780601f10610ddf57610100808354040283529160200191610e0a565b820191906000526020600020905b815481529060010190602001808311610ded57829003601f168201915b505050505090506000610e2860408051602081019091526000815290565b90508051600003610e3a575092915050565b815115610e6c578082604051602001610e54929190611ee2565b60405160208183030381529060405292505050919050565b610af38461107f565b6108d18282604051806020016040528060008152506110f2565b6000828152600260205260409020546001600160a01b0316610f0a5760405162461bcd60e51b815260206004820152602e60248201527f45524337323155524953746f726167653a2055524920736574206f66206e6f6e60448201526d32bc34b9ba32b73a103a37b5b2b760911b6064820152608401610428565b6000828152600a602052604090206104c98282611d8b565b60006001600160e01b031982166380ac58cd60e01b1480610f5357506001600160e01b03198216635b5e139f60e01b145b806102f557506301ffc9a760e01b6001600160e01b03198316146102f5565b61090784848484611125565b60006001600160a01b0384163b1561107457604051630a85bd0160e11b81526001600160a01b0385169063150b7a0290610fc2903390899088908890600401611f11565b6020604051808303816000875af1925050508015610ffd575060408051601f3d908101601f19168201909252610ffa91810190611f4e565b60015b61105a573d80801561102b576040519150601f19603f3d011682016040523d82523d6000602084013e611030565b606091505b5080516000036110525760405162461bcd60e51b815260040161042890611e90565b805181602001fd5b6001600160e01b031916630a85bd0160e11b149050610af3565b506001949350505050565b606061108a826109ac565b60006110a160408051602081019091526000815290565b905060008151116110c15760405180602001604052806000815250610980565b806110cb84611265565b6040516020016110dc929190611ee2565b6040516020818303038152906040529392505050565b6110fc83836112f8565b6111096000848484610f7e565b6104c95760405162461bcd60e51b815260040161042890611e90565b61113184848484611491565b60018111156111a05760405162461bcd60e51b815260206004820152603560248201527f455243373231456e756d657261626c653a20636f6e7365637574697665207472604482015274185b9cd9995c9cc81b9bdd081cdd5c1c1bdc9d1959605a1b6064820152608401610428565b816001600160a01b0385166111fc576111f781600880546000838152600960205260408120829055600182018355919091527ff3f7a9fe364faab93b216da50a3214154f22a0a2b415b23a84c8169e8b636ee30155565b61121f565b836001600160a01b0316856001600160a01b03161461121f5761121f8582611519565b6001600160a01b03841661123b57611236816115b6565b61125e565b846001600160a01b0316846001600160a01b03161461125e5761125e8482611665565b5050505050565b60606000611272836116a9565b600101905060008167ffffffffffffffff81111561129257611292611a28565b6040519080825280601f01601f1916602001820160405280156112bc576020820181803683370190505b5090508181016020015b600019016f181899199a1a9b1b9c1cb0b131b232b360811b600a86061a8153600a85049450846112c657509392505050565b6001600160a01b03821661134e5760405162461bcd60e51b815260206004820181905260248201527f4552433732313a206d696e7420746f20746865207a65726f20616464726573736044820152606401610428565b6000818152600260205260409020546001600160a01b0316156113b35760405162461bcd60e51b815260206004820152601c60248201527f4552433732313a20746f6b656e20616c7265616479206d696e746564000000006044820152606401610428565b6113c1600083836001610f72565b6000818152600260205260409020546001600160a01b0316156114265760405162461bcd60e51b815260206004820152601c60248201527f4552433732313a20746f6b656e20616c7265616479206d696e746564000000006044820152606401610428565b6001600160a01b038216600081815260036020908152604080832080546001019055848352600290915280822080546001600160a01b0319168417905551839291907fddf252ad1be2c89b69c2b068fc378daa952ba7f163c4a11628f55a4df523b3ef908290a45050565b6001811115610907576001600160a01b038416156114d7576001600160a01b038416600090815260036020526040812080548392906114d1908490611f81565b90915550505b6001600160a01b03831615610907576001600160a01b0383166000908152600360205260408120805483929061150e908490611f94565b909155505050505050565b600060016115268461078f565b6115309190611f81565b600083815260076020526040902054909150808214611583576001600160a01b03841660009081526006602090815260408083208584528252808320548484528184208190558352600790915290208190555b5060009182526007602090815260408084208490556001600160a01b039094168352600681528383209183525290812055565b6008546000906115c890600190611f81565b600083815260096020526040812054600880549394509092849081106115f0576115f0611d27565b90600052602060002001549050806008838154811061161157611611611d27565b600091825260208083209091019290925582815260099091526040808220849055858252812055600880548061164957611649611fa7565b6001900381819060005260206000200160009055905550505050565b60006116708361078f565b6001600160a01b039093166000908152600660209081526040808320868452825280832085905593825260079052919091209190915550565b60008072184f03e93ff9f4daa797ed6e38ed64bf6a1f0160401b83106116e85772184f03e93ff9f4daa797ed6e38ed64bf6a1f0160401b830492506040015b6d04ee2d6d415b85acef81000000008310611714576d04ee2d6d415b85acef8100000000830492506020015b662386f26fc10000831061173257662386f26fc10000830492506010015b6305f5e100831061174a576305f5e100830492506008015b612710831061175e57612710830492506004015b60648310611770576064830492506002015b600a83106102f55760010192915050565b8280548282559060005260206000209081019282156117c7579160200282015b828111156117c757825182906117b79082611d8b565b50916020019190600101906117a1565b506117d39291506117d7565b5090565b808211156117d35760006117eb82826117f4565b506001016117d7565b50805461180090611ca0565b6000825580601f10611810575050565b601f016020900490600052602060002090810190610a0b91905b808211156117d3576000815560010161182a565b6001600160e01b031981168114610a0b57600080fd5b60006020828403121561186657600080fd5b81356109808161183e565b60005b8381101561188c578181015183820152602001611874565b50506000910152565b600081518084526118ad816020860160208601611871565b601f01601f19169290920160200192915050565b6020815260006109806020830184611895565b6000602082840312156118e657600080fd5b5035919050565b80356001600160a01b038116811461190457600080fd5b919050565b6000806040838503121561191c57600080fd5b611925836118ed565b946020939093013593505050565b60008060006060848603121561194857600080fd5b611951846118ed565b925061195f602085016118ed565b9150604084013590509250925092565b6000602080830181845280855180835260408601915060408160051b870101925083870160005b828110156119c457603f198886030184526119b2858351611895565b94509285019290850190600101611996565b5092979650505050505050565b6000602082840312156119e357600080fd5b610980826118ed565b600080604083850312156119ff57600080fd5b611a08836118ed565b915060208301358015158114611a1d57600080fd5b809150509250929050565b634e487b7160e01b600052604160045260246000fd5b604051601f8201601f1916810167ffffffffffffffff81118282101715611a6757611a67611a28565b604052919050565b600067ffffffffffffffff831115611a8957611a89611a28565b611a9c601f8401601f1916602001611a3e565b9050828152838383011115611ab057600080fd5b828260208301376000602084830101529392505050565b60008060008060808587031215611add57600080fd5b611ae6856118ed565b9350611af4602086016118ed565b925060408501359150606085013567ffffffffffffffff811115611b1757600080fd5b8501601f81018713611b2857600080fd5b611b3787823560208401611a6f565b91505092959194509250565b60008060408385031215611b5657600080fd5b611b5f836118ed565b9150611b6d602084016118ed565b90509250929050565b600082601f830112611b8757600080fd5b61098083833560208501611a6f565b600080600060608486031215611bab57600080fd5b833567ffffffffffffffff80821115611bc357600080fd5b818601915086601f830112611bd757600080fd5b8135602082821115611beb57611beb611a28565b8160051b611bfa828201611a3e565b928352848101820192828101908b851115611c1457600080fd5b83870192505b84831015611c5057823586811115611c325760008081fd5b611c408d86838b0101611b76565b8352509183019190830190611c1a565b9850505087013592505080821115611c6757600080fd5b611c7387838801611b76565b93506040860135915080821115611c8957600080fd5b50611c9686828701611b76565b9150509250925092565b600181811c90821680611cb457607f821691505b602082108103611cd457634e487b7160e01b600052602260045260246000fd5b50919050565b6020808252602d908201527f4552433732313a2063616c6c6572206973206e6f7420746f6b656e206f776e6560408201526c1c881bdc88185c1c1c9bdd9959609a1b606082015260800190565b634e487b7160e01b600052603260045260246000fd5b601f8211156104c957600081815260208120601f850160051c81016020861015611d645750805b601f850160051c820191505b81811015611d8357828155600101611d70565b505050505050565b815167ffffffffffffffff811115611da557611da5611a28565b611db981611db38454611ca0565b84611d3d565b602080601f831160018114611dee5760008415611dd65750858301515b600019600386901b1c1916600185901b178555611d83565b600085815260208120601f198616915b82811015611e1d57888601518255948401946001909101908401611dfe565b5085821015611e3b5787850151600019600388901b60f8161c191681555b5050505050600190811b01905550565b60208082526025908201527f4552433732313a207472616e736665722066726f6d20696e636f72726563742060408201526437bbb732b960d91b606082015260800190565b60208082526032908201527f4552433732313a207472616e7366657220746f206e6f6e20455243373231526560408201527131b2b4bb32b91034b6b83632b6b2b73a32b960711b606082015260800190565b60008351611ef4818460208801611871565b835190830190611f08818360208801611871565b01949350505050565b6001600160a01b0385811682528416602082015260408101839052608060608201819052600090611f4490830184611895565b9695505050505050565b600060208284031215611f6057600080fd5b81516109808161183e565b634e487b7160e01b600052601160045260246000fd5b818103818111156102f5576102f5611f6b565b808201808211156102f5576102f5611f6b565b634e487b7160e01b600052603160045260246000fdfea26469706673582212209fd298876c3d188c1e33a4529c369042257b9a8541db835d8a7184a1f6115e5464736f6c63430008110033",
    "linkReferences": {}
  },
  "methodIdentifiers": {
    "approve(address,uint256)": "095ea7b3",
    "balanceOf(address)": "70a08231",
    "getApproved(uint256)": "081812fc",
    "getContributors(uint256)": "3c1ab00f",
    "getTitle(uint256)": "929a79b1",
    "isApprovedForAll(address,address)": "e985e9c5",
    "mint(string[],string,string)": "ec0e8548",
    "name()": "06fdde03",
    "ownerOf(uint256)": "6352211e",
    "safeTransferFrom(address,address,uint256)": "42842e0e",
    "safeTransferFrom(address,address,uint256,bytes)": "b88d4fde",
    "setApprovalForAll(address,bool)": "a22cb465",
    "supportsInterface(bytes4)": "01ffc9a7",
    "symbol()": "95d89b41",
    "tokenByIndex(uint256)": "4f6ccce7",
    "tokenOfOwnerByIndex(address,uint256)": "2f745c59",
    "tokenURI(uint256)": "c87b56dd",
    "totalSupply()": "18160ddd",
    "transferFrom(address,address,uint256)": "23b872dd"
  },
  "id": 28
}