{
  "abi": [
    {
      "inputs": [
        {
          "internalType": "uint256",
          "name": "id",
          "type": "uint256"
        }
      ],
      "name": "completeTodo",
      "outputs": [],
      "stateMutability": "nonpayable",
      "type": "function"
    },
    {
      "inputs": [
        {
          "internalType": "uint256",
          "name": "id",
          "type": "uint256"
        },
        {
          "internalType": "string",
          "name": "content",
          "type": "string"
        }
      ],
      "name": "createTodo",
      "outputs": [],
      "stateMutability": "nonpayable",
      "type": "function"
    },
    {
      "inputs": [
        {
          "internalType": "uint256",
          "name": "id",
          "type": "uint256"
        },
        {
          "internalType": "string",
          "name": "content",
          "type": "string"
        }
      ],
      "name": "editTodo",
      "outputs": [],
      "stateMutability": "nonpayable",
      "type": "function"
    },
    {
      "inputs": [
        {
          "internalType": "uint256",
          "name": "id",
          "type": "uint256"
        }
      ],
      "name": "getContent",
      "outputs": [
        {
          "internalType": "string",
          "name": "",
          "type": "string"
        }
      ],
      "stateMutability": "view",
      "type": "function"
    },
    {
      "inputs": [
        {
          "internalType": "address",
          "name": "owner",
          "type": "address"
        }
      ],
      "name": "getIds",
      "outputs": [
        {
          "internalType": "uint256[]",
          "name": "",
          "type": "uint256[]"
        }
      ],
      "stateMutability": "view",
      "type": "function"
    },
    {
      "inputs": [
        {
          "internalType": "uint256",
          "name": "id",
          "type": "uint256"
        }
      ],
      "name": "getOwner",
      "outputs": [
        {
          "internalType": "address",
          "name": "",
          "type": "address"
        }
      ],
      "stateMutability": "view",
      "type": "function"
    },
    {
      "inputs": [
        {
          "internalType": "uint256",
          "name": "id",
          "type": "uint256"
        }
      ],
      "name": "isCompleted",
      "outputs": [
        {
          "internalType": "bool",
          "name": "",
          "type": "bool"
        }
      ],
      "stateMutability": "view",
      "type": "function"
    }
  ],
  "bytecode": {
    "object": "0x608060405234801561001057600080fd5b50610628806100206000396000f3fe608060405234801561001057600080fd5b506004361061007d5760003560e01c80632671b0d81161005b5780632671b0d8146100d35780637a41984b146100f3578063901ee0b814610129578063c41a360a1461013c57600080fd5b806308b8cc8e146100825780630b7ad54c1461009757806320fe2144146100c0575b600080fd5b61009561009036600461041b565b61017d565b005b6100aa6100a53660046104d6565b6101d1565b6040516100b791906104ef565b60405180910390f35b6100956100ce3660046104d6565b610279565b6100e66100e1366004610544565b6102bf565b6040516100b79190610574565b6101196101013660046104d6565b60009081526001602052604090206002015460ff1690565b60405190151581526020016100b7565b61009561013736600461041b565b610328565b61016561014a3660046104d6565b6000908152600160205260409020546001600160a01b031690565b6040516001600160a01b0390911681526020016100b7565b3360008181526020818152604080832080546001818101835591855283852001879055868452808352922080546001600160a01b031916909317835583516101cc93909201919084019061036c565b505050565b60606001600083815260200190815260200160002060010180546101f4906105b8565b80601f0160208091040260200160405190810160405280929190818152602001828054610220906105b8565b801561026d5780601f106102425761010080835404028352916020019161026d565b820191906000526020600020905b81548152906001019060200180831161025057829003601f168201915b50505050509050919050565b6000818152600160205260409020546001600160a01b0316331461029c57600080fd5b6000908152600160205260409020600201805460ff19811660ff90911615179055565b6001600160a01b0381166000908152602081815260409182902080548351818402810184019094528084526060939283018282801561026d57602002820191906000526020600020905b8154815260200190600101908083116103095750505050509050919050565b6000828152600160205260409020546001600160a01b0316331461034b57600080fd5b600082815260016020818152604090922083516101cc939190920191908401905b828054610378906105b8565b90600052602060002090601f01602090048101928261039a57600085556103e0565b82601f106103b357805160ff19168380011785556103e0565b828001600101855582156103e0579182015b828111156103e05782518255916020019190600101906103c5565b506103ec9291506103f0565b5090565b5b808211156103ec57600081556001016103f1565b634e487b7160e01b600052604160045260246000fd5b6000806040838503121561042e57600080fd5b82359150602083013567ffffffffffffffff8082111561044d57600080fd5b818501915085601f83011261046157600080fd5b81358181111561047357610473610405565b604051601f8201601f19908116603f0116810190838211818310171561049b5761049b610405565b816040528281528860208487010111156104b457600080fd5b8260208601602083013760006020848301015280955050505050509250929050565b6000602082840312156104e857600080fd5b5035919050565b600060208083528351808285015260005b8181101561051c57858101830151858201604001528201610500565b8181111561052e576000604083870101525b50601f01601f1916929092016040019392505050565b60006020828403121561055657600080fd5b81356001600160a01b038116811461056d57600080fd5b9392505050565b6020808252825182820181905260009190848201906040850190845b818110156105ac57835183529284019291840191600101610590565b50909695505050505050565b600181811c908216806105cc57607f821691505b6020821081036105ec57634e487b7160e01b600052602260045260246000fd5b5091905056fea2646970667358221220b953f93c5936127414f55822093937979a9e3cbe1a9405b4d80bb0b4438cc44964736f6c634300080d0033",
    "linkReferences": {}
  },
  "methodIdentifiers": {
    "completeTodo(uint256)": "20fe2144",
    "createTodo(uint256,string)": "08b8cc8e",
    "editTodo(uint256,string)": "901ee0b8",
    "getContent(uint256)": "0b7ad54c",
    "getIds(address)": "2671b0d8",
    "getOwner(uint256)": "c41a360a",
    "isCompleted(uint256)": "7a41984b"
  },
  "id": 14
}