{
  "abi": [
    {
      "inputs": [],
      "stateMutability": "nonpayable",
      "type": "constructor"
    },
    {
      "anonymous": false,
      "inputs": [
        {
          "indexed": true,
          "internalType": "address",
          "name": "owner",
          "type": "address"
        },
        {
          "indexed": true,
          "internalType": "address",
          "name": "approved",
          "type": "address"
        },
        {
          "indexed": true,
          "internalType": "uint256",
          "name": "tokenId",
          "type": "uint256"
        }
      ],
      "name": "Approval",
      "type": "event"
    },
    {
      "anonymous": false,
      "inputs": [
        {
          "indexed": true,
          "internalType": "address",
          "name": "owner",
          "type": "address"
        },
        {
          "indexed": true,
          "internalType": "address",
          "name": "operator",
          "type": "address"
        },
        {
          "indexed": false,
          "internalType": "bool",
          "name": "approved",
          "type": "bool"
        }
      ],
      "name": "ApprovalForAll",
      "type": "event"
    },
    {
      "anonymous": false,
      "inputs": [
        {
          "indexed": true,
          "internalType": "address",
          "name": "from",
          "type": "address"
        },
        {
          "indexed": true,
          "internalType": "address",
          "name": "to",
          "type": "address"
        },
        {
          "indexed": true,
          "internalType": "uint256",
          "name": "tokenId",
          "type": "uint256"
        }
      ],
      "name": "Transfer",
      "type": "event"
    },
    {
      "inputs": [
        {
          "internalType": "address",
          "name": "to",
          "type": "address"
        },
        {
          "internalType": "uint256",
          "name": "tokenId",
          "type": "uint256"
        }
      ],
      "name": "approve",
      "outputs": [],
      "stateMutability": "nonpayable",
      "type": "function"
    },
    {
      "inputs": [
        {
          "internalType": "address",
          "name": "owner",
          "type": "address"
        }
      ],
      "name": "balanceOf",
      "outputs": [
        {
          "internalType": "uint256",
          "name": "",
          "type": "uint256"
        }
      ],
      "stateMutability": "view",
      "type": "function"
    },
    {
      "inputs": [
        {
          "internalType": "uint256",
          "name": "tokenId",
          "type": "uint256"
        }
      ],
      "name": "getApproved",
      "outputs": [
        {
          "internalType": "address",
          "name": "",
          "type": "address"
        }
      ],
      "stateMutability": "view",
      "type": "function"
    },
    {
      "inputs": [
        {
          "internalType": "uint256",
          "name": "tokenId",
          "type": "uint256"
        }
      ],
      "name": "getContributors",
      "outputs": [
        {
          "internalType": "string[]",
          "name": "",
          "type": "string[]"
        }
      ],
      "stateMutability": "view",
      "type": "function"
    },
    {
      "inputs": [
        {
          "internalType": "uint256",
          "name": "tokenId",
          "type": "uint256"
        }
      ],
      "name": "getTitle",
      "outputs": [
        {
          "internalType": "string",
          "name": "",
          "type": "string"
        }
      ],
      "stateMutability": "view",
      "type": "function"
    },
    {
      "inputs": [
        {
          "internalType": "address",
          "name": "owner",
          "type": "address"
        },
        {
          "internalType": "address",
          "name": "operator",
          "type": "address"
        }
      ],
      "name": "isApprovedForAll",
      "outputs": [
        {
          "internalType": "bool",
          "name": "",
          "type": "bool"
        }
      ],
      "stateMutability": "view",
      "type": "function"
    },
    {
      "inputs": [
        {
          "internalType": "string[]",
          "name": "contributors",
          "type": "string[]"
        },
        {
          "internalType": "string",
          "name": "title",
          "type": "string"
        },
        {
          "internalType": "string",
          "name": "uri",
          "type": "string"
        }
      ],
      "name": "mint",
      "outputs": [
        {
          "internalType": "uint256",
          "name": "tokenId",
          "type": "uint256"
        }
      ],
      "stateMutability": "nonpayable",
      "type": "function"
    },
    {
      "inputs": [],
      "name": "name",
      "outputs": [
        {
          "internalType": "string",
          "name": "",
          "type": "string"
        }
      ],
      "stateMutability": "view",
      "type": "function"
    },
    {
      "inputs": [
        {
          "internalType": "uint256",
          "name": "tokenId",
          "type": "uint256"
        }
      ],
      "name": "ownerOf",
      "outputs": [
        {
          "internalType": "address",
          "name": "",
          "type": "address"
        }
      ],
      "stateMutability": "view",
      "type": "function"
    },
    {
      "inputs": [
        {
          "internalType": "address",
          "name": "from",
          "type": "address"
        },
        {
          "internalType": "address",
          "name": "to",
          "type": "address"
        },
        {
          "internalType": "uint256",
          "name": "tokenId",
          "type": "uint256"
        }
      ],
      "name": "safeTransferFrom",
      "outputs": [],
      "stateMutability": "nonpayable",
      "type": "function"
    },
    {
      "inputs": [
        {
          "internalType": "address",
          "name": "from",
          "type": "address"
        },
        {
          "internalType": "address",
          "name": "to",
          "type": "address"
        },
        {
          "internalType": "uint256",
          "name": "tokenId",
          "type": "uint256"
        },
        {
          "internalType": "bytes",
          "name": "data",
          "type": "bytes"
        }
      ],
      "name": "safeTransferFrom",
      "outputs": [],
      "stateMutability": "nonpayable",
      "type": "function"
    },
    {
      "inputs": [
        {
          "internalType": "address",
          "name": "operator",
          "type": "address"
        },
        {
          "internalType": "bool",
          "name": "approved",
          "type": "bool"
        }
      ],
      "name": "setApprovalForAll",
      "outputs": [],
      "stateMutability": "nonpayable",
      "type": "function"
    },
    {
      "inputs": [
        {
          "internalType": "bytes4",
          "name": "interfaceId",
          "type": "bytes4"
        }
      ],
      "name": "supportsInterface",
      "outputs": [
        {
          "internalType": "bool",
          "name": "",
          "type": "bool"
        }
      ],
      "stateMutability": "view",
      "type": "function"
    },
    {
      "inputs": [],
      "name": "symbol",
      "outputs": [
        {
          "internalType": "string",
          "name": "",
          "type": "string"
        }
      ],
      "stateMutability": "view",
      "type": "function"
    },
    {
      "inputs": [
        {
          "internalType": "uint256",
          "name": "index",
          "type": "uint256"
        }
      ],
      "name": "tokenByIndex",
      "outputs": [
        {
          "internalType": "uint256",
          "name": "",
          "type": "uint256"
        }
      ],
      "stateMutability": "view",
      "type": "function"
    },
    {
      "inputs": [
        {
          "internalType": "address",
          "name": "owner",
          "type": "address"
        },
        {
          "internalType": "uint256",
          "name": "index",
          "type": "uint256"
        }
      ],
      "name": "tokenOfOwnerByIndex",
      "outputs": [
        {
          "internalType": "uint256",
          "name": "",
          "type": "uint256"
        }
      ],
      "stateMutability": "view",
      "type": "function"
    },
    {
      "inputs": [
        {
          "internalType": "uint256",
          "name": "tokenId",
          "type": "uint256"
        }
      ],
      "name": "tokenURI",
      "outputs": [
        {
          "internalType": "string",
          "name": "",
          "type": "string"
        }
      ],
      "stateMutability": "view",
      "type": "function"
    },
    {
      "inputs": [],
      "name": "totalSupply",
      "outputs": [
        {
          "internalType": "uint256",
          "name": "",
          "type": "uint256"
        }
      ],
      "stateMutability": "view",
      "type": "function"
    },
    {
      "inputs": [
        {
          "internalType": "address",
          "name": "from",
          "type": "address"
        },
        {
          "internalType": "address",
          "name": "to",
          "type": "address"
        },
        {
          "internalType": "uint256",
          "name": "tokenId",
          "type": "uint256"
        }
      ],
      "name": "transferFrom",
      "outputs": [],
      "stateMutability": "nonpayable",
      "type": "function"
    }
  ],
  "bytecode": {
    "object": "0x60806040523480156200001157600080fd5b50604080518082018252600681526553686565747360d01b60208083019182528351808501909452600384526214d21560ea1b9084015281519192916200005b916000916200007a565b508051620000719060019060208401906200007a565b5050506200015c565b828054620000889062000120565b90600052602060002090601f016020900481019282620000ac5760008555620000f7565b82601f10620000c757805160ff1916838001178555620000f7565b82800160010185558215620000f7579182015b82811115620000f7578251825591602001919060010190620000da565b506200010592915062000109565b5090565b5b808211156200010557600081556001016200010a565b600181811c908216806200013557607f821691505b6020821081036200015657634e487b7160e01b600052602260045260246000fd5b50919050565b611f90806200016c6000396000f3fe608060405234801561001057600080fd5b50600436106101215760003560e01c80634f6ccce7116100ad578063a22cb46511610071578063a22cb46514610262578063b88d4fde14610275578063c87b56dd14610288578063e985e9c51461029b578063ec0e8548146102d757600080fd5b80634f6ccce71461020e5780636352211e1461022157806370a0823114610234578063929a79b11461024757806395d89b411461025a57600080fd5b806318160ddd116100f457806318160ddd146101a357806323b872dd146101b55780632f745c59146101c85780633c1ab00f146101db57806342842e0e146101fb57600080fd5b806301ffc9a71461012657806306fdde031461014e578063081812fc14610163578063095ea7b31461018e575b600080fd5b6101396101343660046118ee565b6102ea565b60405190151581526020015b60405180910390f35b6101566102fb565b6040516101459190611963565b610176610171366004611976565b61038d565b6040516001600160a01b039091168152602001610145565b6101a161019c3660046119ab565b6103b4565b005b6008545b604051908152602001610145565b6101a16101c33660046119d5565b6104ce565b6101a76101d63660046119ab565b6104ff565b6101ee6101e9366004611976565b610595565b6040516101459190611a11565b6101a16102093660046119d5565b610681565b6101a761021c366004611976565b61069c565b61017661022f366004611976565b61072f565b6101a7610242366004611a73565b61078f565b610156610255366004611976565b610815565b6101566108b7565b6101a1610270366004611a8e565b6108c6565b6101a1610283366004611b69565b6108d5565b610156610296366004611976565b61090d565b6101396102a9366004611be5565b6001600160a01b03918216600090815260056020908152604080832093909416825291909152205460ff1690565b6101a76102e5366004611c38565b610918565b60006102f58261098e565b92915050565b60606000805461030a90611d42565b80601f016020809104026020016040519081016040528092919081815260200182805461033690611d42565b80156103835780601f1061035857610100808354040283529160200191610383565b820191906000526020600020905b81548152906001019060200180831161036657829003601f168201915b5050505050905090565b6000610398826109b3565b506000908152600460205260409020546001600160a01b031690565b60006103bf8261072f565b9050806001600160a01b0316836001600160a01b0316036104315760405162461bcd60e51b815260206004820152602160248201527f4552433732313a20617070726f76616c20746f2063757272656e74206f776e656044820152603960f91b60648201526084015b60405180910390fd5b336001600160a01b038216148061044d575061044d81336102a9565b6104bf5760405162461bcd60e51b815260206004820152603d60248201527f4552433732313a20617070726f76652063616c6c6572206973206e6f7420746f60448201527f6b656e206f776e6572206f7220617070726f76656420666f7220616c6c0000006064820152608401610428565b6104c98383610a15565b505050565b6104d83382610a83565b6104f45760405162461bcd60e51b815260040161042890611d7c565b6104c9838383610b02565b600061050a8361078f565b821061056c5760405162461bcd60e51b815260206004820152602b60248201527f455243373231456e756d657261626c653a206f776e657220696e646578206f7560448201526a74206f6620626f756e647360a81b6064820152608401610428565b506001600160a01b03919091166000908152600660209081526040808320938352929052205490565b6060600c6000838152602001908152602001600020805480602002602001604051908101604052809291908181526020016000905b828210156106765783829060005260206000200180546105e990611d42565b80601f016020809104026020016040519081016040528092919081815260200182805461061590611d42565b80156106625780601f1061063757610100808354040283529160200191610662565b820191906000526020600020905b81548152906001019060200180831161064557829003601f168201915b5050505050815260200190600101906105ca565b505050509050919050565b6104c9838383604051806020016040528060008152506108d5565b60006106a760085490565b821061070a5760405162461bcd60e51b815260206004820152602c60248201527f455243373231456e756d657261626c653a20676c6f62616c20696e646578206f60448201526b7574206f6620626f756e647360a01b6064820152608401610428565b6008828154811061071d5761071d611dc9565b90600052602060002001549050919050565b6000818152600260205260408120546001600160a01b0316806102f55760405162461bcd60e51b8152602060048201526018602482015277115490cdcc8c4e881a5b9d985b1a59081d1bdad95b88125160421b6044820152606401610428565b60006001600160a01b0382166107f95760405162461bcd60e51b815260206004820152602960248201527f4552433732313a2061646472657373207a65726f206973206e6f7420612076616044820152683634b21037bbb732b960b91b6064820152608401610428565b506001600160a01b031660009081526003602052604090205490565b6000818152600d6020526040902080546060919061083290611d42565b80601f016020809104026020016040519081016040528092919081815260200182805461085e90611d42565b80156108ab5780601f10610880576101008083540402835291602001916108ab565b820191906000526020600020905b81548152906001019060200180831161088e57829003601f168201915b50505050509050919050565b60606001805461030a90611d42565b6108d1338383610c73565b5050565b6108df3383610a83565b6108fb5760405162461bcd60e51b815260040161042890611d7c565b61090784848484610d41565b50505050565b60606102f582610d74565b6000610923600b5490565b9050610933600b80546001019055565b6000818152600c6020908152604090912085516109529287019061178f565b506000818152600d602090815260409091208451610972928601906117ec565b5061097d3382610e7c565b6109878183610e96565b9392505050565b60006001600160e01b0319821663780e9d6360e01b14806102f557506102f582610f30565b6000818152600260205260409020546001600160a01b0316610a125760405162461bcd60e51b8152602060048201526018602482015277115490cdcc8c4e881a5b9d985b1a59081d1bdad95b88125160421b6044820152606401610428565b50565b600081815260046020526040902080546001600160a01b0319166001600160a01b0384169081179091558190610a4a8261072f565b6001600160a01b03167f8c5be1e5ebec7d5bd14f71427d1e84f3dd0314c0f7b2291e5b200ac8c7c3b92560405160405180910390a45050565b600080610a8f8361072f565b9050806001600160a01b0316846001600160a01b03161480610ad657506001600160a01b0380821660009081526005602090815260408083209388168352929052205460ff165b80610afa5750836001600160a01b0316610aef8461038d565b6001600160a01b0316145b949350505050565b826001600160a01b0316610b158261072f565b6001600160a01b031614610b3b5760405162461bcd60e51b815260040161042890611ddf565b6001600160a01b038216610b9d5760405162461bcd60e51b8152602060048201526024808201527f4552433732313a207472616e7366657220746f20746865207a65726f206164646044820152637265737360e01b6064820152608401610428565b610baa8383836001610f80565b826001600160a01b0316610bbd8261072f565b6001600160a01b031614610be35760405162461bcd60e51b815260040161042890611ddf565b600081815260046020908152604080832080546001600160a01b03199081169091556001600160a01b0387811680865260038552838620805460001901905590871680865283862080546001019055868652600290945282852080549092168417909155905184937fddf252ad1be2c89b69c2b068fc378daa952ba7f163c4a11628f55a4df523b3ef91a4505050565b816001600160a01b0316836001600160a01b031603610cd45760405162461bcd60e51b815260206004820152601960248201527f4552433732313a20617070726f766520746f2063616c6c6572000000000000006044820152606401610428565b6001600160a01b03838116600081815260056020908152604080832094871680845294825291829020805460ff191686151590811790915591519182527f17307eab39ab6107e8899845ad3d59bd9653f200f220920489ca2b5937696c31910160405180910390a3505050565b610d4c848484610b02565b610d5884848484610f8c565b6109075760405162461bcd60e51b815260040161042890611e24565b6060610d7f826109b3565b6000828152600a602052604081208054610d9890611d42565b80601f0160208091040260200160405190810160405280929190818152602001828054610dc490611d42565b8015610e115780601f10610de657610100808354040283529160200191610e11565b820191906000526020600020905b815481529060010190602001808311610df457829003601f168201915b505050505090506000610e2f60408051602081019091526000815290565b90508051600003610e41575092915050565b815115610e73578082604051602001610e5b929190611e76565b60405160208183030381529060405292505050919050565b610afa8461108d565b6108d1828260405180602001604052806000815250611100565b6000828152600260205260409020546001600160a01b0316610f115760405162461bcd60e51b815260206004820152602e60248201527f45524337323155524953746f726167653a2055524920736574206f66206e6f6e60448201526d32bc34b9ba32b73a103a37b5b2b760911b6064820152608401610428565b6000828152600a6020908152604090912082516104c9928401906117ec565b60006001600160e01b031982166380ac58cd60e01b1480610f6157506001600160e01b03198216635b5e139f60e01b145b806102f557506301ffc9a760e01b6001600160e01b03198316146102f5565b61090784848484611133565b60006001600160a01b0384163b1561108257604051630a85bd0160e11b81526001600160a01b0385169063150b7a0290610fd0903390899088908890600401611ea5565b6020604051808303816000875af192505050801561100b575060408051601f3d908101601f1916820190925261100891810190611ee2565b60015b611068573d808015611039576040519150601f19603f3d011682016040523d82523d6000602084013e61103e565b606091505b5080516000036110605760405162461bcd60e51b815260040161042890611e24565b805181602001fd5b6001600160e01b031916630a85bd0160e11b149050610afa565b506001949350505050565b6060611098826109b3565b60006110af60408051602081019091526000815290565b905060008151116110cf5760405180602001604052806000815250610987565b806110d984611273565b6040516020016110ea929190611e76565b6040516020818303038152906040529392505050565b61110a8383611306565b6111176000848484610f8c565b6104c95760405162461bcd60e51b815260040161042890611e24565b61113f8484848461149f565b60018111156111ae5760405162461bcd60e51b815260206004820152603560248201527f455243373231456e756d657261626c653a20636f6e7365637574697665207472604482015274185b9cd9995c9cc81b9bdd081cdd5c1c1bdc9d1959605a1b6064820152608401610428565b816001600160a01b03851661120a5761120581600880546000838152600960205260408120829055600182018355919091527ff3f7a9fe364faab93b216da50a3214154f22a0a2b415b23a84c8169e8b636ee30155565b61122d565b836001600160a01b0316856001600160a01b03161461122d5761122d8582611527565b6001600160a01b03841661124957611244816115c4565b61126c565b846001600160a01b0316846001600160a01b03161461126c5761126c8482611673565b5050505050565b60606000611280836116b7565b600101905060008167ffffffffffffffff8111156112a0576112a0611aca565b6040519080825280601f01601f1916602001820160405280156112ca576020820181803683370190505b5090508181016020015b600019016f181899199a1a9b1b9c1cb0b131b232b360811b600a86061a8153600a85049450846112d457509392505050565b6001600160a01b03821661135c5760405162461bcd60e51b815260206004820181905260248201527f4552433732313a206d696e7420746f20746865207a65726f20616464726573736044820152606401610428565b6000818152600260205260409020546001600160a01b0316156113c15760405162461bcd60e51b815260206004820152601c60248201527f4552433732313a20746f6b656e20616c7265616479206d696e746564000000006044820152606401610428565b6113cf600083836001610f80565b6000818152600260205260409020546001600160a01b0316156114345760405162461bcd60e51b815260206004820152601c60248201527f4552433732313a20746f6b656e20616c7265616479206d696e746564000000006044820152606401610428565b6001600160a01b038216600081815260036020908152604080832080546001019055848352600290915280822080546001600160a01b0319168417905551839291907fddf252ad1be2c89b69c2b068fc378daa952ba7f163c4a11628f55a4df523b3ef908290a45050565b6001811115610907576001600160a01b038416156114e5576001600160a01b038416600090815260036020526040812080548392906114df908490611f15565b90915550505b6001600160a01b03831615610907576001600160a01b0383166000908152600360205260408120805483929061151c908490611f2c565b909155505050505050565b600060016115348461078f565b61153e9190611f15565b600083815260076020526040902054909150808214611591576001600160a01b03841660009081526006602090815260408083208584528252808320548484528184208190558352600790915290208190555b5060009182526007602090815260408084208490556001600160a01b039094168352600681528383209183525290812055565b6008546000906115d690600190611f15565b600083815260096020526040812054600880549394509092849081106115fe576115fe611dc9565b90600052602060002001549050806008838154811061161f5761161f611dc9565b600091825260208083209091019290925582815260099091526040808220849055858252812055600880548061165757611657611f44565b6001900381819060005260206000200160009055905550505050565b600061167e8361078f565b6001600160a01b039093166000908152600660209081526040808320868452825280832085905593825260079052919091209190915550565b60008072184f03e93ff9f4daa797ed6e38ed64bf6a1f0160401b83106116f65772184f03e93ff9f4daa797ed6e38ed64bf6a1f0160401b830492506040015b6d04ee2d6d415b85acef81000000008310611722576d04ee2d6d415b85acef8100000000830492506020015b662386f26fc10000831061174057662386f26fc10000830492506010015b6305f5e1008310611758576305f5e100830492506008015b612710831061176c57612710830492506004015b6064831061177e576064830492506002015b600a83106102f55760010192915050565b8280548282559060005260206000209081019282156117dc579160200282015b828111156117dc57825180516117cc9184916020909101906117ec565b50916020019190600101906117af565b506117e892915061186c565b5090565b8280546117f890611d42565b90600052602060002090601f01602090048101928261181a5760008555611860565b82601f1061183357805160ff1916838001178555611860565b82800160010185558215611860579182015b82811115611860578251825591602001919060010190611845565b506117e8929150611889565b808211156117e8576000611880828261189e565b5060010161186c565b5b808211156117e8576000815560010161188a565b5080546118aa90611d42565b6000825580601f106118ba575050565b601f016020900490600052602060002090810190610a129190611889565b6001600160e01b031981168114610a1257600080fd5b60006020828403121561190057600080fd5b8135610987816118d8565b60005b8381101561192657818101518382015260200161190e565b838111156109075750506000910152565b6000815180845261194f81602086016020860161190b565b601f01601f19169290920160200192915050565b6020815260006109876020830184611937565b60006020828403121561198857600080fd5b5035919050565b80356001600160a01b03811681146119a657600080fd5b919050565b600080604083850312156119be57600080fd5b6119c78361198f565b946020939093013593505050565b6000806000606084860312156119ea57600080fd5b6119f38461198f565b9250611a016020850161198f565b9150604084013590509250925092565b6000602080830181845280855180835260408601915060408160051b870101925083870160005b82811015611a6657603f19888603018452611a54858351611937565b94509285019290850190600101611a38565b5092979650505050505050565b600060208284031215611a8557600080fd5b6109878261198f565b60008060408385031215611aa157600080fd5b611aaa8361198f565b915060208301358015158114611abf57600080fd5b809150509250929050565b634e487b7160e01b600052604160045260246000fd5b604051601f8201601f1916810167ffffffffffffffff81118282101715611b0957611b09611aca565b604052919050565b600067ffffffffffffffff831115611b2b57611b2b611aca565b611b3e601f8401601f1916602001611ae0565b9050828152838383011115611b5257600080fd5b828260208301376000602084830101529392505050565b60008060008060808587031215611b7f57600080fd5b611b888561198f565b9350611b966020860161198f565b925060408501359150606085013567ffffffffffffffff811115611bb957600080fd5b8501601f81018713611bca57600080fd5b611bd987823560208401611b11565b91505092959194509250565b60008060408385031215611bf857600080fd5b611c018361198f565b9150611c0f6020840161198f565b90509250929050565b600082601f830112611c2957600080fd5b61098783833560208501611b11565b600080600060608486031215611c4d57600080fd5b833567ffffffffffffffff80821115611c6557600080fd5b818601915086601f830112611c7957600080fd5b8135602082821115611c8d57611c8d611aca565b8160051b611c9c828201611ae0565b928352848101820192828101908b851115611cb657600080fd5b83870192505b84831015611cf257823586811115611cd45760008081fd5b611ce28d86838b0101611c18565b8352509183019190830190611cbc565b9850505087013592505080821115611d0957600080fd5b611d1587838801611c18565b93506040860135915080821115611d2b57600080fd5b50611d3886828701611c18565b9150509250925092565b600181811c90821680611d5657607f821691505b602082108103611d7657634e487b7160e01b600052602260045260246000fd5b50919050565b6020808252602d908201527f4552433732313a2063616c6c6572206973206e6f7420746f6b656e206f776e6560408201526c1c881bdc88185c1c1c9bdd9959609a1b606082015260800190565b634e487b7160e01b600052603260045260246000fd5b60208082526025908201527f4552433732313a207472616e736665722066726f6d20696e636f72726563742060408201526437bbb732b960d91b606082015260800190565b60208082526032908201527f4552433732313a207472616e7366657220746f206e6f6e20455243373231526560408201527131b2b4bb32b91034b6b83632b6b2b73a32b960711b606082015260800190565b60008351611e8881846020880161190b565b835190830190611e9c81836020880161190b565b01949350505050565b6001600160a01b0385811682528416602082015260408101839052608060608201819052600090611ed890830184611937565b9695505050505050565b600060208284031215611ef457600080fd5b8151610987816118d8565b634e487b7160e01b600052601160045260246000fd5b600082821015611f2757611f27611eff565b500390565b60008219821115611f3f57611f3f611eff565b500190565b634e487b7160e01b600052603160045260246000fdfea26469706673582212205e984ed7104b56fbda64d04d4374be7de779422b1550257ce68e89d105a40a4764736f6c634300080d0033",
    "linkReferences": {}
  },
  "methodIdentifiers": {
    "approve(address,uint256)": "095ea7b3",
    "balanceOf(address)": "70a08231",
    "getApproved(uint256)": "081812fc",
    "getContributors(uint256)": "3c1ab00f",
    "getTitle(uint256)": "929a79b1",
    "isApprovedForAll(address,address)": "e985e9c5",
    "mint(string[],string,string)": "ec0e8548",
    "name()": "06fdde03",
    "ownerOf(uint256)": "6352211e",
    "safeTransferFrom(address,address,uint256)": "42842e0e",
    "safeTransferFrom(address,address,uint256,bytes)": "b88d4fde",
    "setApprovalForAll(address,bool)": "a22cb465",
    "supportsInterface(bytes4)": "01ffc9a7",
    "symbol()": "95d89b41",
    "tokenByIndex(uint256)": "4f6ccce7",
    "tokenOfOwnerByIndex(address,uint256)": "2f745c59",
    "tokenURI(uint256)": "c87b56dd",
    "totalSupply()": "18160ddd",
    "transferFrom(address,address,uint256)": "23b872dd"
  },
  "id": 28
}